{
  "contractName": "SpringEscrow",
  "abi": [
    {
      "constant": true,
      "inputs": [
        {
          "name": "_message",
          "type": "bytes32"
        },
        {
          "name": "_v",
          "type": "uint8"
        },
        {
          "name": "_r",
          "type": "bytes32"
        },
        {
          "name": "_s",
          "type": "bytes32"
        }
      ],
      "name": "verifySignature",
      "outputs": [
        {
          "name": "",
          "type": "address"
        }
      ],
      "payable": false,
      "stateMutability": "view",
      "type": "function"
    }
  ],
  "bytecode": "0x608060405234801561001057600080fd5b50610251806100206000396000f300608060405260043610610041576000357c0100000000000000000000000000000000000000000000000000000000900463ffffffff1680639695786914610046575b600080fd5b34801561005257600080fd5b5061009e6004803603810190808035600019169060200190929190803560ff169060200190929190803560001916906020019092919080356000191690602001909291905050506100e0565b604051808273ffffffffffffffffffffffffffffffffffffffff1673ffffffffffffffffffffffffffffffffffffffff16815260200191505060405180910390f35b600060606000806040805190810160405280601c81526020017f19457468657265756d205369676e6564204d6573736167653a0a333200000000815250925082886040518083805190602001908083835b6020831015156101565780518252602082019150602081019050602083039250610131565b6001836020036101000a03801982511681845116808217855250505050505090500182600019166000191681526020019250505060405180910390209150600182888888604051600081526020016040526040518085600019166000191681526020018460ff1660ff1681526020018360001916600019168152602001826000191660001916815260200194505050505060206040516020810390808403906000865af115801561020b573d6000803e3d6000fd5b5050506020604051035190508093505050509493505050505600a165627a7a723058208d9e1f5b47b73aeaf50a8d69b42998b826e60fe844380279df837d54b77185f00029",
  "source": "pragma solidity ^0.4.23;\n\ncontract SpringEscrow {\n\n  function verifySignature(bytes32 _message, uint8 _v, bytes32 _r, bytes32 _s) view returns (address) {\n    bytes memory prefix = \"\\x19Ethereum Signed Message:\\n32\";\n    bytes32 prefixedHash = sha3(prefix, _message);\n    address signer = ecrecover(prefixedHash, _v, _r, _s);\n    return signer;\n  }\n}\n",
  "sourcePath": "/Users/fabdarice-springlabs/dev/contracts/contracts/SpringEscrow.sol",
  "compiler": {
    "name": "solc",
    "version": "0.4.23+commit.124ca40d.Emscripten.clang"
  },
  "schemaVersion": "2.0.0",
  "updatedAt": "2018-05-03T17:37:58.848Z"
}